{
  "contractName": "PriceOracle",
  "abi": [
    {
      "constant": true,
      "inputs": [],
      "name": "anchorAdmin",
      "outputs": [
        {
          "name": "",
          "type": "address"
        }
      ],
      "payable": false,
      "stateMutability": "view",
      "type": "function"
    },
    {
      "constant": true,
      "inputs": [],
      "name": "maxSwingMantissa",
      "outputs": [
        {
          "name": "",
          "type": "uint256"
        }
      ],
      "payable": false,
      "stateMutability": "view",
      "type": "function"
    },
    {
      "constant": true,
      "inputs": [
        {
          "name": "",
          "type": "address"
        }
      ],
      "name": "_assetPrices",
      "outputs": [
        {
          "name": "mantissa",
          "type": "uint256"
        }
      ],
      "payable": false,
      "stateMutability": "view",
      "type": "function"
    },
    {
      "constant": true,
      "inputs": [],
      "name": "pendingAnchorAdmin",
      "outputs": [
        {
          "name": "",
          "type": "address"
        }
      ],
      "payable": false,
      "stateMutability": "view",
      "type": "function"
    },
    {
      "constant": true,
      "inputs": [],
      "name": "numBlocksPerPeriod",
      "outputs": [
        {
          "name": "",
          "type": "uint256"
        }
      ],
      "payable": false,
      "stateMutability": "view",
      "type": "function"
    },
    {
      "constant": true,
      "inputs": [],
      "name": "paused",
      "outputs": [
        {
          "name": "",
          "type": "bool"
        }
      ],
      "payable": false,
      "stateMutability": "view",
      "type": "function"
    },
    {
      "constant": true,
      "inputs": [
        {
          "name": "",
          "type": "address"
        }
      ],
      "name": "anchors",
      "outputs": [
        {
          "name": "period",
          "type": "uint256"
        },
        {
          "name": "priceMantissa",
          "type": "uint256"
        }
      ],
      "payable": false,
      "stateMutability": "view",
      "type": "function"
    },
    {
      "constant": true,
      "inputs": [],
      "name": "poster",
      "outputs": [
        {
          "name": "",
          "type": "address"
        }
      ],
      "payable": false,
      "stateMutability": "view",
      "type": "function"
    },
    {
      "constant": true,
      "inputs": [
        {
          "name": "",
          "type": "address"
        }
      ],
      "name": "pendingAnchors",
      "outputs": [
        {
          "name": "",
          "type": "uint256"
        }
      ],
      "payable": false,
      "stateMutability": "view",
      "type": "function"
    },
    {
      "constant": true,
      "inputs": [],
      "name": "maxSwing",
      "outputs": [
        {
          "name": "mantissa",
          "type": "uint256"
        }
      ],
      "payable": false,
      "stateMutability": "view",
      "type": "function"
    },
    {
      "inputs": [
        {
          "name": "_poster",
          "type": "address"
        }
      ],
      "payable": false,
      "stateMutability": "nonpayable",
      "type": "constructor"
    },
    {
      "payable": true,
      "stateMutability": "payable",
      "type": "fallback"
    },
    {
      "anonymous": false,
      "inputs": [
        {
          "indexed": false,
          "name": "msgSender",
          "type": "address"
        },
        {
          "indexed": false,
          "name": "asset",
          "type": "address"
        },
        {
          "indexed": false,
          "name": "error",
          "type": "uint256"
        },
        {
          "indexed": false,
          "name": "info",
          "type": "uint256"
        },
        {
          "indexed": false,
          "name": "detail",
          "type": "uint256"
        }
      ],
      "name": "OracleFailure",
      "type": "event"
    },
    {
      "anonymous": false,
      "inputs": [
        {
          "indexed": false,
          "name": "anchorAdmin",
          "type": "address"
        },
        {
          "indexed": false,
          "name": "asset",
          "type": "address"
        },
        {
          "indexed": false,
          "name": "oldScaledPrice",
          "type": "uint256"
        },
        {
          "indexed": false,
          "name": "newScaledPrice",
          "type": "uint256"
        }
      ],
      "name": "NewPendingAnchor",
      "type": "event"
    },
    {
      "anonymous": false,
      "inputs": [
        {
          "indexed": false,
          "name": "asset",
          "type": "address"
        },
        {
          "indexed": false,
          "name": "previousPriceMantissa",
          "type": "uint256"
        },
        {
          "indexed": false,
          "name": "requestedPriceMantissa",
          "type": "uint256"
        },
        {
          "indexed": false,
          "name": "newPriceMantissa",
          "type": "uint256"
        }
      ],
      "name": "PricePosted",
      "type": "event"
    },
    {
      "anonymous": false,
      "inputs": [
        {
          "indexed": false,
          "name": "asset",
          "type": "address"
        },
        {
          "indexed": false,
          "name": "requestedPriceMantissa",
          "type": "uint256"
        },
        {
          "indexed": false,
          "name": "anchorPriceMantissa",
          "type": "uint256"
        },
        {
          "indexed": false,
          "name": "cappedPriceMantissa",
          "type": "uint256"
        }
      ],
      "name": "CappedPricePosted",
      "type": "event"
    },
    {
      "anonymous": false,
      "inputs": [
        {
          "indexed": false,
          "name": "newState",
          "type": "bool"
        }
      ],
      "name": "SetPaused",
      "type": "event"
    },
    {
      "anonymous": false,
      "inputs": [
        {
          "indexed": false,
          "name": "oldPendingAnchorAdmin",
          "type": "address"
        },
        {
          "indexed": false,
          "name": "newPendingAnchorAdmin",
          "type": "address"
        }
      ],
      "name": "NewPendingAnchorAdmin",
      "type": "event"
    },
    {
      "anonymous": false,
      "inputs": [
        {
          "indexed": false,
          "name": "oldAnchorAdmin",
          "type": "address"
        },
        {
          "indexed": false,
          "name": "newAnchorAdmin",
          "type": "address"
        }
      ],
      "name": "NewAnchorAdmin",
      "type": "event"
    },
    {
      "anonymous": false,
      "inputs": [
        {
          "indexed": false,
          "name": "error",
          "type": "uint256"
        },
        {
          "indexed": false,
          "name": "info",
          "type": "uint256"
        },
        {
          "indexed": false,
          "name": "detail",
          "type": "uint256"
        }
      ],
      "name": "Failure",
      "type": "event"
    },
    {
      "constant": false,
      "inputs": [
        {
          "name": "asset",
          "type": "address"
        },
        {
          "name": "newScaledPrice",
          "type": "uint256"
        }
      ],
      "name": "_setPendingAnchor",
      "outputs": [
        {
          "name": "",
          "type": "uint256"
        }
      ],
      "payable": false,
      "stateMutability": "nonpayable",
      "type": "function"
    },
    {
      "constant": false,
      "inputs": [
        {
          "name": "requestedState",
          "type": "bool"
        }
      ],
      "name": "_setPaused",
      "outputs": [
        {
          "name": "",
          "type": "uint256"
        }
      ],
      "payable": false,
      "stateMutability": "nonpayable",
      "type": "function"
    },
    {
      "constant": false,
      "inputs": [
        {
          "name": "newPendingAnchorAdmin",
          "type": "address"
        }
      ],
      "name": "_setPendingAnchorAdmin",
      "outputs": [
        {
          "name": "",
          "type": "uint256"
        }
      ],
      "payable": false,
      "stateMutability": "nonpayable",
      "type": "function"
    },
    {
      "constant": false,
      "inputs": [],
      "name": "_acceptAnchorAdmin",
      "outputs": [
        {
          "name": "",
          "type": "uint256"
        }
      ],
      "payable": false,
      "stateMutability": "nonpayable",
      "type": "function"
    },
    {
      "constant": true,
      "inputs": [
        {
          "name": "asset",
          "type": "address"
        }
      ],
      "name": "assetPrices",
      "outputs": [
        {
          "name": "",
          "type": "uint256"
        }
      ],
      "payable": false,
      "stateMutability": "view",
      "type": "function"
    },
    {
      "constant": true,
      "inputs": [
        {
          "name": "asset",
          "type": "address"
        }
      ],
      "name": "getPrice",
      "outputs": [
        {
          "name": "",
          "type": "uint256"
        }
      ],
      "payable": false,
      "stateMutability": "view",
      "type": "function"
    },
    {
      "constant": false,
      "inputs": [
        {
          "name": "asset",
          "type": "address"
        },
        {
          "name": "requestedPriceMantissa",
          "type": "uint256"
        }
      ],
      "name": "setPrice",
      "outputs": [
        {
          "name": "",
          "type": "uint256"
        }
      ],
      "payable": false,
      "stateMutability": "nonpayable",
      "type": "function"
    },
    {
      "constant": false,
      "inputs": [
        {
          "name": "assets",
          "type": "address[]"
        },
        {
          "name": "requestedPriceMantissas",
          "type": "uint256[]"
        }
      ],
      "name": "setPrices",
      "outputs": [
        {
          "name": "",
          "type": "uint256[]"
        }
      ],
      "payable": false,
      "stateMutability": "nonpayable",
      "type": "function"
    }
  ],
  "bytecode": "0x608060405234801561001057600080fd5b5060405160208061138283398101604081815291516002805433600160a060020a03199182161790915560048054909116600160a060020a039092169190911790556020810190915267016345785d8a00009081905260055561130a806100786000396000f3006080604052600436106100fa5763ffffffff7c0100000000000000000000000000000000000000000000000000000000600035041662e4768b81146100ff57806308f31857146101355780630c9c630114610166578063183f34441461017b57806326617c281461019c57806341976e09146101b65780634352fa9f146101d7578063451b1e3a146102b5578063485feabe146102ca5780635c975abb146102df5780635e9a523c14610308578063692374e31461032957806380959721146103635780639964622c146103785780639e8c4d9514610399578063c5faf1d5146103ba578063ccb13cbd146103cf578063de9d0e85146103e4575b600080fd5b34801561010b57600080fd5b50610123600160a060020a0360043516602435610408565b60408051918252519081900360200190f35b34801561014157600080fd5b5061014a610444565b60408051600160a060020a039092168252519081900360200190f35b34801561017257600080fd5b50610123610453565b34801561018757600080fd5b50610123600160a060020a036004351661045f565b3480156101a857600080fd5b506101236004351515610471565b3480156101c257600080fd5b50610123600160a060020a03600435166104e9565b3480156101e357600080fd5b506040805160206004803580820135838102808601850190965280855261026595369593946024949385019291829185019084908082843750506040805187358901803560208181028481018201909552818452989b9a9989019892975090820195509350839250850190849080828437509497506104f49650505050505050565b60408051602080825283518183015283519192839290830191858101910280838360005b838110156102a1578181015183820152602001610289565b505050509050019250505060405180910390f35b3480156102c157600080fd5b5061014a610645565b3480156102d657600080fd5b50610123610654565b3480156102eb57600080fd5b506102f4610659565b604080519115158252519081900360200190f35b34801561031457600080fd5b50610123600160a060020a0360043516610662565b34801561033557600080fd5b5061034a600160a060020a0360043516610695565b6040805192835260208301919091528051918290030190f35b34801561036f57600080fd5b5061014a6106ae565b34801561038457600080fd5b50610123600160a060020a03600435166106bd565b3480156103a557600080fd5b50610123600160a060020a0360043516610761565b3480156103c657600080fd5b50610123610773565b3480156103db57600080fd5b50610123610779565b3480156103f057600080fd5b50610123600160a060020a0360043516602435610823565b600454600090600160a060020a031633146104315761042a83600160086108c2565b905061043e565b61043b838361094b565b90505b92915050565b600254600160a060020a031681565b67016345785d8a000081565b60016020526000908152604090205481565b600254600090600160a060020a0316331461049a5761049360006001806108c2565b90506104e4565b6000805483151560ff19909116811790915560408051918252517f3c70af01296aef045b2f5c9d3c30b05d4428fd257145b9c7fcd76418e65b59809181900360200190a160005b90505b919050565b60006104e182610662565b8151815160045460609291908390600090600160a060020a031633146105655760408051600180825281830190925290602080830190803883390190505091506105426000600160086108c2565b82600081518110151561055157fe5b60209081029091010152909350839061063b565b8315806105725750838314155b156105a557604080516001808252818301909252906020808301908038833901905050915061054260006002600a6108c2565b836040519080825280602002602001820160405280156105cf578160200160208202803883390190505b509150600090505b838110156106375761061787828151811015156105f057fe5b90602001906020020151878381518110151561060857fe5b9060200190602002015161094b565b828281518110151561062557fe5b602090810290910101526001016105d7565b8194505b5050505092915050565b600354600160a060020a031681565b60f081565b60005460ff1681565b6000805460ff1615610676575060006104e4565b50600160a060020a0381166000908152600160205260409020546104e4565b6006602052600090815260409020805460019091015482565b600454600160a060020a031681565b6002546000908190600160a060020a031633146106e9576106e26000600160026108c2565b915061075b565b5060038054600160a060020a0384811673ffffffffffffffffffffffffffffffffffffffff19831681179093556040805191909216808252602082019390935281517f6c773973d5bcf264b509f4194ceb99e891251f6aabb325523a863c282958b13e929181900390910190a1600091505b50919050565b60076020526000908152604090205481565b60055481565b6003546000908190600160a060020a031633146107a55761079e6000600160006108c2565b915061081f565b50600280546003805473ffffffffffffffffffffffffffffffffffffffff19808416600160a060020a03838116919091179095551690556040805192909116808352336020840152815190927fbef9248fe57ae972dd47833f68c43f0b3b2d14217612dfbc804a520a23730d4692908290030190a1600091505b5090565b6002546000908190600160a060020a0316331461084e5761084784600160036108c2565b91506108bb565b50600160a060020a0383166000818152600760209081526040918290208054908690558251338152918201939093528082018390526060810185905290517ff0aa20c29c1f8e751bfe0a78bc49a520ed14f2dab274087d90d1341d8b76af5c9181900360800190a1600091505b5092915050565b60007f96f29b65cebbd6816352fb242b6af7180b49e8a09e19e589225d35bc8444f0b733858560028111156108f357fe5b85600a8111156108ff57fe5b60408051600160a060020a0395861681529390941660208401528284019190915260608201526000608082015290519081900360a00190a182600281111561094357fe5b949350505050565b600080610956611272565b600160f04304016080820152600160a060020a03851660009081526007602090815260408083205460e0850190815281519283019091528682529083525115610a3a57600060608301526040805160208101825260e0840151815290830181905282516109c39190610ca2565b6020840152925060008360198111156109d857fe5b146109fd576109f686600260048660198111156109f157fe5b610d27565b9350610c99565b6020808301516040805192830190526005548252610a1a91610db1565b15610a35576109f68660026006856020015160000151610d27565b610af1565b600160a060020a038616600081815260066020818152604080842080546060890190815282518085018452969095529290915260019091015483528401919091525115610adf57610a9382604001518360000151610db8565b8452151560a084015292506000836019811115610aac57fe5b14610ac5576109f686600260058660198111156109f157fe5b8160a0015115610a355760408201515160c0830152610af1565b60408051602081018252868152908301525b610afe8260400151610f5b565b15610b10576109f686600260076108c2565b8151610b1b90610f5b565b15610b2d576109f686600260096108c2565b600160a060020a03861660009081526007602052604090205415610b6557600160a060020a0386166000908152600760205260408120555b816060015182608001511115610bb557604080518082018252608084015181528351516020808301918252600160a060020a038a1660009081526006909152929092209051815590516001909101555b50600160a060020a038516600090815260016020526040902054815151610bdd908790610f60565b81515160408051600160a060020a0389168152602081018490528082018890526060810192909252517fdd71a1d19fcba687442a1d5c58578f1e409af71a79d10fd95a4d66efd8fa9ae79181900360800190a18160a0015115610c945760c082015182515160408051600160a060020a038a16815260208101899052808201939093526060830191909152517f7221f7a2708437039cc63319145b6b873a40594b9782a3bee45b975e2f3b0f689181900360800190a15b600093505b50505092915050565b6000610cac6112cc565b610cb46112cc565b6000610cc08686610db1565b15610ced57610ccf8686610f8b565b925090506000816019811115610ce157fe5b14610ce857fe5b610d10565b610cf78587610f8b565b925090506000816019811115610d0957fe5b14610d1057fe5b610d1a8287610fc5565b9350935050509250929050565b60007f96f29b65cebbd6816352fb242b6af7180b49e8a09e19e589225d35bc8444f0b73386866002811115610d5857fe5b86600a811115610d6457fe5b60408051600160a060020a0395861681529390941660208401528284019190915260608201526080810185905290519081900360a00190a1836002811115610da857fe5b95945050505050565b5190511190565b600080610dc36112cc565b610dcb6112cc565b610dd36112cc565b610ddb6112cc565b610de36112cc565b610deb6112cc565b6040805160208181018352670de0b6b3a76400008252825190810190925260055482529550600090610e1e908790610fe9565b955090506000816019811115610e3057fe5b14610e535760408051602081019091526000808252919950909750955087610f4e565b610e5d8b86611008565b935090506000816019811115610e6f57fe5b14610e925760408051602081019091526000808252919950909750955087610f4e565b610e9c8a84610db1565b15610eb1576000600184985098509850610f4e565b60408051602081019091526005548152610ecc908790610f8b565b945090506000816019811115610ede57fe5b14610f015760408051602081019091526000808252919950909750955087610f4e565b610f0b8b85611008565b925090506000816019811115610f1d57fe5b14610f2457fe5b610f2e8a836110f5565b15610f43576000600183985098509850610f4e565b6000808b9850985098505b5050505050509250925092565b511590565b6040805160208181018352928152600160a060020a0390931660009081526001909252902090519055565b6000610f956112cc565b600080610faa866000015186600001516110fc565b60408051602081019091529081529097909650945050505050565b6000610fcf6112cc565b83518351610fdd919061111f565b915091505b9250929050565b6000610ff36112cc565b600080610faa866000015186600001516111d3565b60006110126112cc565b60008060008060008061102d8a600001518a600001516111fd565b9096509450600086601981111561104057fe5b146110615760408051602081019091526000815295975094955086946110e8565b6110736706f05b59d3b20000866111d3565b9094509250600084601981111561108657fe5b146110a75760408051602081019091526000815293975092955086926110e8565b6110b983670de0b6b3a7640000611243565b909250905060008260198111156110cc57fe5b146110d357fe5b60408051602081019091528181526000985096505b5050505050509250929050565b5190511090565b600080838311611113575060009050818303610fe2565b50600490506000610fe2565b60006111296112cc565b60008060008061114188670de0b6b3a76400006111fd565b9094509250600084601981111561115457fe5b146111755760408051602081019091526000815293955092935084926111c8565b61117f8388611243565b9092509050600082601981111561119257fe5b146111b35760408051602081019091526000815291955090935084906111c8565b60408051602081019091528181526000965094505b505050509250929050565b6000808383018481106111ec57600081925092506111f5565b60039250600091505b509250929050565b6000808084151561121457600092508291506111f5565b5083830283858281151561122457fe5b04146112375760039250600091506111f5565b600081925092506111f5565b6000808215156112595750600590506000610fe2565b6000838581151561126657fe5b04915091509250929050565b610100604051908101604052806112876112cc565b81526020016112946112cc565b81526020016112a16112cc565b8152602001600081526020016000815260200160001515815260200160008152602001600081525090565b604080516020810190915260008152905600a165627a7a7230582077609420ae0d0314af225b3d28b8eaae37063b21cd679c4a9b4f6d2da57bf0a10029",
  "source": "pragma solidity ^0.4.24;\n\nimport \"./Exponential.sol\";\n\ncontract PriceOracle is Exponential {\n\n    /**\n      * @dev flag for whether or not contract is paused\n      *\n      */\n    bool public paused;\n\n    uint public constant numBlocksPerPeriod = 240; // approximately 1 hour: 60 seconds/minute * 60 minutes/hour * 1 block/15 seconds\n\n    uint public constant maxSwingMantissa = (10 ** 17); // 0.1\n\n    /**\n      * @dev Mapping of asset addresses and their corresponding price in terms of Eth-Wei\n      *      which is simply equal to AssetWeiPrice * 10e18. For instance, if OMG token was\n      *      worth 5x Eth then the price for OMG would be 5*10e18 or Exp({mantissa: 5000000000000000000}).\n      * map: assetAddress -> Exp\n      */\n    mapping(address => Exp) public _assetPrices;\n\n    constructor(address _poster) public {\n        anchorAdmin = msg.sender;\n        poster = _poster;\n        maxSwing = Exp({mantissa : maxSwingMantissa});\n    }\n\n    /**\n      * @notice Do not pay into PriceOracle\n      */\n    function() payable public {\n        revert();\n    }\n\n    enum OracleError {\n        NO_ERROR,\n        UNAUTHORIZED,\n        FAILED_TO_SET_PRICE\n    }\n\n    enum OracleFailureInfo {\n        ACCEPT_ANCHOR_ADMIN_PENDING_ANCHOR_ADMIN_CHECK,\n        SET_PAUSED_OWNER_CHECK,\n        SET_PENDING_ANCHOR_ADMIN_OWNER_CHECK,\n        SET_PENDING_ANCHOR_PERMISSION_CHECK,\n        SET_PRICE_CALCULATE_SWING,\n        SET_PRICE_CAP_TO_MAX,\n        SET_PRICE_MAX_SWING_CHECK,\n        SET_PRICE_NO_ANCHOR_PRICE_OR_INITIAL_PRICE_ZERO,\n        SET_PRICE_PERMISSION_CHECK,\n        SET_PRICE_ZERO_PRICE,\n        SET_PRICES_PARAM_VALIDATION\n    }\n\n    /**\n      * @dev `msgSender` is msg.sender; `error` corresponds to enum OracleError; `info` corresponds to enum OracleFailureInfo, and `detail` is an arbitrary\n      * contract-specific code that enables us to report opaque error codes from upgradeable contracts.\n      **/\n    event OracleFailure(address msgSender, address asset, uint error, uint info, uint detail);\n\n    /**\n      * @dev use this when reporting a known error from the price oracle or a non-upgradeable collaborator\n      *      Using Oracle in name because we already inherit a `fail` function from ErrorReporter.sol via Exponential.sol\n      */\n    function failOracle(address asset, OracleError err, OracleFailureInfo info) internal returns (uint) {\n        emit OracleFailure(msg.sender, asset, uint(err), uint(info), 0);\n\n        return uint(err);\n    }\n\n    /**\n      * @dev Use this when reporting an error from the money market. Give the money market result as `details`\n      */\n    function failOracleWithDetails(address asset, OracleError err, OracleFailureInfo info, uint details) internal returns (uint) {\n        emit OracleFailure(msg.sender, asset, uint(err), uint(info), details);\n\n        return uint(err);\n    }\n\n    /**\n      * @dev An administrator who can set the pending anchor value for assets.\n      *      Set in the constructor.\n      */\n    address public anchorAdmin;\n\n    /**\n      * @dev pending anchor administrator for this contract.\n      */\n    address public pendingAnchorAdmin;\n\n    /**\n      * @dev Address of the price poster.\n      *      Set in the constructor.\n      */\n    address public poster;\n\n    /**\n      * @dev maxSwing the maximum allowed percentage difference between a new price and the anchor's price\n      *      Set only in the constructor\n      */\n    Exp public maxSwing;\n\n    struct Anchor {\n        // floor(block.number / numBlocksPerPeriod) + 1\n        uint period;\n\n        // Price in ETH, scaled by 10**18\n        uint priceMantissa;\n    }\n\n    /**\n      * @dev anchors by asset\n      */\n    mapping(address => Anchor) public anchors;\n\n    /**\n      * @dev pending anchor prices by asset\n      */\n    mapping(address => uint) public pendingAnchors;\n\n    /**\n      * @dev emitted when a pending anchor is set\n      * @param asset Asset for which to set a pending anchor\n      * @param oldScaledPrice if an unused pending anchor was present, its value; otherwise 0.\n      * @param newScaledPrice the new scaled pending anchor price\n      */\n    event NewPendingAnchor(address anchorAdmin, address asset, uint oldScaledPrice, uint newScaledPrice);\n\n    /**\n      * @notice provides ability to override the anchor price for an asset\n      * @dev Admin function to set the anchor price for an asset\n      * @param asset Asset for which to override the anchor price\n      * @param newScaledPrice New anchor price\n      * @return uint 0=success, otherwise a failure (see enum OracleError for details)\n      */\n    function _setPendingAnchor(address asset, uint newScaledPrice) public returns (uint) {\n        // Check caller = anchorAdmin. Note: Deliberately not allowing admin. They can just change anchorAdmin if desired.\n        if (msg.sender != anchorAdmin) {\n            return failOracle(asset, OracleError.UNAUTHORIZED, OracleFailureInfo.SET_PENDING_ANCHOR_PERMISSION_CHECK);\n        }\n\n        uint oldScaledPrice = pendingAnchors[asset];\n        pendingAnchors[asset] = newScaledPrice;\n\n        emit NewPendingAnchor(msg.sender, asset, oldScaledPrice, newScaledPrice);\n\n        return uint(OracleError.NO_ERROR);\n    }\n\n    /**\n      * @dev emitted for all price changes\n      */\n    event PricePosted(address asset, uint previousPriceMantissa, uint requestedPriceMantissa, uint newPriceMantissa);\n\n    /**\n      * @dev emitted if this contract successfully posts a capped-to-max price to the money market\n      */\n    event CappedPricePosted(address asset, uint requestedPriceMantissa, uint anchorPriceMantissa, uint cappedPriceMantissa);\n\n    /**\n      * @dev emitted when admin either pauses or resumes the contract; newState is the resulting state\n      */\n    event SetPaused(bool newState);\n\n    /**\n      * @dev emitted when pendingAnchorAdmin is changed\n      */\n    event NewPendingAnchorAdmin(address oldPendingAnchorAdmin, address newPendingAnchorAdmin);\n\n    /**\n      * @dev emitted when pendingAnchorAdmin is accepted, which means anchor admin is updated\n      */\n    event NewAnchorAdmin(address oldAnchorAdmin, address newAnchorAdmin);\n\n    /**\n      * @notice set `paused` to the specified state\n      * @dev Admin function to pause or resume the market\n      * @param requestedState value to assign to `paused`\n      * @return uint 0=success, otherwise a failure\n      */\n    function _setPaused(bool requestedState) public returns (uint) {\n        // Check caller = anchorAdmin\n        if (msg.sender != anchorAdmin) {\n            return failOracle(0, OracleError.UNAUTHORIZED, OracleFailureInfo.SET_PAUSED_OWNER_CHECK);\n        }\n\n        paused = requestedState;\n        emit SetPaused(requestedState);\n\n        return uint(Error.NO_ERROR);\n    }\n\n    /**\n      * @notice Begins transfer of anchor admin rights. The newPendingAnchorAdmin must call `_acceptAnchorAdmin` to finalize the transfer.\n      * @dev Admin function to begin change of anchor admin. The newPendingAnchorAdmin must call `_acceptAnchorAdmin` to finalize the transfer.\n      * @param newPendingAnchorAdmin New pending anchor admin.\n      * @return uint 0=success, otherwise a failure\n      *\n      * TODO: Should we add a second arg to verify, like a checksum of `newAnchorAdmin` address?\n      */\n    function _setPendingAnchorAdmin(address newPendingAnchorAdmin) public returns (uint) {\n        // Check caller = anchorAdmin\n        if (msg.sender != anchorAdmin) {\n            return failOracle(0, OracleError.UNAUTHORIZED, OracleFailureInfo.SET_PENDING_ANCHOR_ADMIN_OWNER_CHECK);\n        }\n\n        // save current value, if any, for inclusion in log\n        address oldPendingAnchorAdmin = pendingAnchorAdmin;\n        // Store pendingAdmin = newPendingAdmin\n        pendingAnchorAdmin = newPendingAnchorAdmin;\n\n        emit NewPendingAnchorAdmin(oldPendingAnchorAdmin, newPendingAnchorAdmin);\n\n        return uint(Error.NO_ERROR);\n    }\n\n    /**\n      * @notice Accepts transfer of anchor admin rights. msg.sender must be pendingAnchorAdmin\n      * @dev Admin function for pending anchor admin to accept role and update anchor admin\n      * @return uint 0=success, otherwise a failure\n      */\n    function _acceptAnchorAdmin() public returns (uint) {\n        // Check caller = pendingAnchorAdmin\n        // msg.sender can't be zero\n        if (msg.sender != pendingAnchorAdmin) {\n            return failOracle(0, OracleError.UNAUTHORIZED, OracleFailureInfo.ACCEPT_ANCHOR_ADMIN_PENDING_ANCHOR_ADMIN_CHECK);\n        }\n\n        // Save current value for inclusion in log\n        address oldAnchorAdmin = anchorAdmin;\n        // Store admin = pendingAnchorAdmin\n        anchorAdmin = pendingAnchorAdmin;\n        // Clear the pending value\n        pendingAnchorAdmin = 0;\n\n        emit NewAnchorAdmin(oldAnchorAdmin, msg.sender);\n\n        return uint(Error.NO_ERROR);\n    }\n\n    /**\n      * @notice retrieves price of an asset\n      * @dev function to get price for an asset\n      * @param asset Asset for which to get the price\n      * @return uint mantissa of asset price (scaled by 1e18) or zero if unset or contract paused\n      */\n    function assetPrices(address asset) public view returns (uint) {\n        if (paused) {\n            return 0;\n        } else {\n            return _assetPrices[asset].mantissa;\n        }\n    }\n\n    /**\n      * @notice retrieves price of an asset\n      * @dev function to get price for an asset\n      * @param asset Asset for which to get the price\n      * @return uint mantissa of asset price (scaled by 1e18) or zero if unset or contract paused\n      */\n    function getPrice(address asset) public view returns (uint) {\n        return assetPrices(asset);\n    }\n\n    struct SetPriceLocalVars {\n        Exp price;\n        Exp swing;\n        Exp anchorPrice;\n        uint anchorPeriod;\n        uint currentPeriod;\n        bool priceCapped;\n        uint cappingAnchorPriceMantissa;\n        uint pendingAnchorMantissa;\n    }\n\n    /**\n      * @notice entry point for updating prices\n      * @dev function to set price for an asset\n      * @param asset Asset for which to set the price\n      * @param requestedPriceMantissa requested new price, scaled by 10**18\n      * @return uint 0=success, otherwise a failure (see enum OracleError for details)\n      */\n    function setPrice(address asset, uint requestedPriceMantissa) public returns (uint) {\n        // Fail when msg.sender is not poster\n        if (msg.sender != poster) {\n            return failOracle(asset, OracleError.UNAUTHORIZED, OracleFailureInfo.SET_PRICE_PERMISSION_CHECK);\n        }\n\n        return setPriceInternal(asset, requestedPriceMantissa);\n    }\n\n    function setPriceInternal(address asset, uint requestedPriceMantissa) internal returns (uint) {\n        // re-used for intermediate errors\n        Error err;\n        SetPriceLocalVars memory localVars;\n        // We add 1 for currentPeriod so that it can never be zero and there's no ambiguity about an unset value.\n        // (It can be a problem in tests with low block numbers.)\n        localVars.currentPeriod = (block.number / numBlocksPerPeriod) + 1;\n        localVars.pendingAnchorMantissa = pendingAnchors[asset];\n        localVars.price = Exp({mantissa : requestedPriceMantissa});\n\n        if (localVars.pendingAnchorMantissa != 0) {\n            // let's explicitly set to 0 rather than relying on default of declaration\n            localVars.anchorPeriod = 0;\n            localVars.anchorPrice = Exp({mantissa : localVars.pendingAnchorMantissa});\n\n            // Verify movement is within max swing of pending anchor (currently: 10%)\n            (err, localVars.swing) = calculateSwing(localVars.anchorPrice, localVars.price);\n            if (err != Error.NO_ERROR) {\n                return failOracleWithDetails(asset, OracleError.FAILED_TO_SET_PRICE, OracleFailureInfo.SET_PRICE_CALCULATE_SWING, uint(err));\n            }\n\n            // Fail when swing > maxSwing\n            if (greaterThanExp(localVars.swing, maxSwing)) {\n                return failOracleWithDetails(asset, OracleError.FAILED_TO_SET_PRICE, OracleFailureInfo.SET_PRICE_MAX_SWING_CHECK, localVars.swing.mantissa);\n            }\n        } else {\n            localVars.anchorPeriod = anchors[asset].period;\n            localVars.anchorPrice = Exp({mantissa : anchors[asset].priceMantissa});\n\n            if (localVars.anchorPeriod != 0) {\n                (err, localVars.priceCapped, localVars.price) = capToMax(localVars.anchorPrice, localVars.price);\n                if (err != Error.NO_ERROR) {\n                    return failOracleWithDetails(asset, OracleError.FAILED_TO_SET_PRICE, OracleFailureInfo.SET_PRICE_CAP_TO_MAX, uint(err));\n                }\n                if (localVars.priceCapped) {\n                    // save for use in log\n                    localVars.cappingAnchorPriceMantissa = localVars.anchorPrice.mantissa;\n                }\n            } else {\n                // Setting first price. Accept as is (already assigned above from requestedPriceMantissa) and use as anchor\n                localVars.anchorPrice = Exp({mantissa : requestedPriceMantissa});\n            }\n        }\n\n        // Fail if anchorPrice or price is zero.\n        // zero anchor represents an unexpected situation likely due to a problem in this contract\n        // zero price is more likely as the result of bad input from the caller of this function\n        if (isZeroExp(localVars.anchorPrice)) {\n            // If we get here price could also be zero, but it does not seem worthwhile to distinguish the 3rd case\n            return failOracle(asset, OracleError.FAILED_TO_SET_PRICE, OracleFailureInfo.SET_PRICE_NO_ANCHOR_PRICE_OR_INITIAL_PRICE_ZERO);\n        }\n\n        if (isZeroExp(localVars.price)) {\n            return failOracle(asset, OracleError.FAILED_TO_SET_PRICE, OracleFailureInfo.SET_PRICE_ZERO_PRICE);\n        }\n\n        // BEGIN SIDE EFFECTS\n\n        // Set pendingAnchor = Nothing\n        // Pending anchor is only used once.\n        if (pendingAnchors[asset] != 0) {\n            pendingAnchors[asset] = 0;\n        }\n\n        // If currentPeriod > anchorPeriod:\n        //  Set anchors[asset] = (currentPeriod, price)\n        //  The new anchor is if we're in a new period or we had a pending anchor, then we become the new anchor\n        if (localVars.currentPeriod > localVars.anchorPeriod) {\n            anchors[asset] = Anchor({period : localVars.currentPeriod, priceMantissa : localVars.price.mantissa});\n        }\n\n        uint previousPrice = _assetPrices[asset].mantissa;\n\n        setPriceStorageInternal(asset, localVars.price.mantissa);\n\n        emit PricePosted(asset, previousPrice, requestedPriceMantissa, localVars.price.mantissa);\n\n        if (localVars.priceCapped) {\n            // We have set a capped price. Log it so we can detect the situation and investigate.\n            emit CappedPricePosted(asset, requestedPriceMantissa, localVars.cappingAnchorPriceMantissa, localVars.price.mantissa);\n        }\n\n        return uint(OracleError.NO_ERROR);\n    }\n\n    // As a function to allow harness overrides\n    function setPriceStorageInternal(address asset, uint256 priceMantissa) internal {\n        _assetPrices[asset] = Exp({mantissa: priceMantissa});\n    }\n\n    // abs(price - anchorPrice) / anchorPrice\n    function calculateSwing(Exp memory anchorPrice, Exp memory price) pure internal returns (Error, Exp memory) {\n        Exp memory numerator;\n        Error err;\n\n        if (greaterThanExp(anchorPrice, price)) {\n            (err, numerator) = subExp(anchorPrice, price);\n            // can't underflow\n            assert(err == Error.NO_ERROR);\n        } else {\n            (err, numerator) = subExp(price, anchorPrice);\n            // Given greaterThan check above, price >= anchorPrice so can't underflow.\n            assert(err == Error.NO_ERROR);\n        }\n\n        return divExp(numerator, anchorPrice);\n    }\n\n    function capToMax(Exp memory anchorPrice, Exp memory price) view internal returns (Error, bool, Exp memory) {\n        Exp memory one = Exp({mantissa : mantissaOne});\n        Exp memory onePlusMaxSwing;\n        Exp memory oneMinusMaxSwing;\n        Exp memory max;\n        Exp memory min;\n        // re-used for intermediate errors\n        Error err;\n\n        (err, onePlusMaxSwing) = addExp(one, maxSwing);\n        if (err != Error.NO_ERROR) {\n            return (err, false, Exp({mantissa : 0}));\n        }\n\n        // max = anchorPrice * (1 + maxSwing)\n        (err, max) = mulExp(anchorPrice, onePlusMaxSwing);\n        if (err != Error.NO_ERROR) {\n            return (err, false, Exp({mantissa : 0}));\n        }\n\n        // If price > anchorPrice * (1 + maxSwing)\n        // Set price = anchorPrice * (1 + maxSwing)\n        if (greaterThanExp(price, max)) {\n            return (Error.NO_ERROR, true, max);\n        }\n\n        (err, oneMinusMaxSwing) = subExp(one, maxSwing);\n        if (err != Error.NO_ERROR) {\n            return (err, false, Exp({mantissa : 0}));\n        }\n\n        // min = anchorPrice * (1 - maxSwing)\n        (err, min) = mulExp(anchorPrice, oneMinusMaxSwing);\n        // We can't overflow here or we would have already overflowed above when calculating `max`\n        assert(err == Error.NO_ERROR);\n\n        // If  price < anchorPrice * (1 - maxSwing)\n        // Set price = anchorPrice * (1 - maxSwing)\n        if (lessThanExp(price, min)) {\n            return (Error.NO_ERROR, true, min);\n        }\n\n        return (Error.NO_ERROR, false, price);\n    }\n\n    /**\n      * @notice entry point for updating multiple prices\n      * @dev function to set prices for a variable number of assets.\n      * @param assets a list of up to assets for which to set a price. required: 0 < assets.length == requestedPriceMantissas.length\n      * @param requestedPriceMantissas requested new prices for the assets, scaled by 10**18. required: 0 < assets.length == requestedPriceMantissas.length\n      * @return uint values in same order as inputs. For each: 0=success, otherwise a failure (see enum OracleError for details)\n      */\n    function setPrices(address[] assets, uint[] requestedPriceMantissas) public returns (uint[] memory) {\n        uint numAssets = assets.length;\n        uint numPrices = requestedPriceMantissas.length;\n        uint[] memory result;\n\n        // Fail when msg.sender is not poster\n        if (msg.sender != poster) {\n            result = new uint[](1);\n            result[0] = failOracle(0, OracleError.UNAUTHORIZED, OracleFailureInfo.SET_PRICE_PERMISSION_CHECK);\n            return result;\n        }\n\n        if ((numAssets == 0) || (numPrices != numAssets)) {\n            result = new uint[](1);\n            result[0] = failOracle(0, OracleError.FAILED_TO_SET_PRICE, OracleFailureInfo.SET_PRICES_PARAM_VALIDATION);\n            return result;\n        }\n\n        result = new uint[](numAssets);\n\n        for (uint i = 0; i < numAssets; i++) {\n            result[i] = setPriceInternal(assets[i], requestedPriceMantissas[i]);\n        }\n\n        return result;\n    }\n}",
  "sourcePath": "/home/pillardev/Desktop/freelance/compound-money-market/contracts/PriceOracle.sol",
  "compiler": {
    "name": "solc",
    "version": "0.4.25+commit.59dbf8f1.Emscripten.clang"
  },
  "schemaVersion": "2.0.2",
  "updatedAt": "2020-02-08T11:02:17.328Z"
}